:060000008831AF2B000067
:0800080083018031200077081C
:10001000A0007808A1007908A2007A08A3002300B4
:1000200011082000A400230012082000A5002300CE
:1000300013082000A600230014082000A700850153
:1000400091308400801C2628911846288501913023
:100050008400801E2D28911A48282008F7002108C6
:10006000F8002208F9002308FA0024082300910070
:10007000200025082300920020002608230093007A
:1000800020002708230094000900200080318828E0
:100090008031C629F801F901F701FA01220042086E
:1000A000031D5528410803196F281030C3000310A1
:1000B000BF0DC00DF70DFA0D42087A02031D62282C
:1000C00041087702031C6B284108F702031CFA035E
:1000D0004208FA020314F80DF90DC30B572820004B
:1000E000080010302200C500F701FA01C20CC10C53
:1000F000031C80284308F7070318FA0A4408FA0784
:10010000FA0CF70CF90CF80CC50B76282000080047
:1001100033083102031D932834083202031D93284B
:10012000B201B10197280130B1070030B23D340867
:100130002200C000200033082200BF00C20164304A
:10014000C10020004A2079082200C0007808BF00C2
:100150004008C2003F08C100200036082200C40049
:10016000200035082200C300200071207908FA0021
:1001700032087A02031CC828031DC22878083102FD
:100180000318C82821000E1122000E15CC282000CB
:1001900021000E1122000E11200034082200C000A0
:1001A000200033082200BF00C2016430C1002000DB
:1001B0004A2079082200C0007808BF004008C20029
:1001C0003F08C100200038082200C4002000370882
:1001D0002200C300200071207908FA0032087A0258
:1001E000031CFE28031DF828780831020318FE2896
:1001F00021008E1022008E140229200021008E1072
:1002000022008E10200034082200C0002000330895
:100210002200BF00C2016430C10020004A207908DA
:100220002200C0007808BF004008C2003F08C1009B
:1002300020003A082200C400200039082200C30030
:10024000200071207908FA0032087A02031C342950
:10025000031D2E29780831020318342921001010BB
:100260002200101438292000210010102200101044
:10027000200034082200C000200033082200BF0004
:10028000C2016430C10020004A2079082200C00069
:100290007808BF004008C2003F08C10020003C08A9
:1002A0002200C40020003B082200C300200071206F
:1002B0007908FA0032087A02031C6B29031D6429AD
:1002C0007808310203186B29F53021008F002200D5
:1002D0008F1470292000F53021008F0022008F102C
:1002E0002000911080312D280B088B1323009517C7
:1002F000151400000000891B8B1713087F390319A0
:10030000C4292200BF00230011082200C0002300DE
:1003100012082200C1003F082000111E8D29230071
:100320009A00220040082300910022004108230087
:1003300092000B088B139517151400000000891B01
:100340008B17130D140D7F390319C4292200BF0028
:10035000230011082200C000230012082200C1005F
:100360003F082000111EB22923009A0022004008F5
:10037000230091002200410823009200910A0319F2
:10038000920A20007429230020000800911EC6292B
:10039000230019082000BD0067080319D629013A77
:1003A0000319EA29033A0319FE29142A3D08413C9E
:1003B0000319DE293D08613C031DE1290130E700F6
:1003C000E9291E30230091000230920020007421A0
:1003D000E7011B2A3D08543C0319F2293D08743CEF
:1003E000031DF5290230E700FD292230230091008A
:1003F0000230920020007421E7011B2A3D080A3CCC
:10040000031D062A0130F000E701132A1E305207AF
:100410008400203085000318850A3D0880000130E3
:10042000D2070230E7001B2A263023009100023059
:10043000920020007421911280312D284529D22765
:10044000D2060A004529D227D2060A004529D2271A
:10045000D2060A002B28D726C42AD42CBA18AC12EC
:10046000D81258163216252C252C0D050000CF2544
:100470000D050001AB20CE27552A311D252C252C3A
:100480000D050001AB20CE27552A321D252C252C29
:100490000D0500014529D227D2060A004529D22799
:1004A000D2060A00CF250D0500014529D227D20624
:1004B0000A002B28D726D022D2244F22BA12D812D3
:1004C000D8060A00CF250D0500012B28D726D022FB
:1004D000D2244F22BA12D812D8060A00CF250D0511
:1004E00000014529D227D2060A002B28D726C42A84
:1004F000D42CBA18AC12D81258163216252C252C2A
:10050000AC19AC12D81258163416252C252C0D0512
:100510000001CF250D0500012B28D726C42AD42C95
:10052000311D252C252C0D0500012B28D726C42A8A
:10053000D42C321D252C252C0D0500012B28D72667
:10054000C42AD42C331D252C252C0D0500012B2865
:10055000D726C42AD42C341D252C252C0D050001AA
:100560004529D227D2060A004529D227D2060A00F9
:10057000CF250D0500014529D227D2060A00D63223
:10058000F239E9376E1DA0182E180D050001C43090
:10059000F4323A10321B2F18B817321832190D05E1
:1005A0000001CF250D050000412A2010C337ED3092
:1005B0006E326F10E4322038F23A6531E1060A00FB
:1005C000412AAB20CE27552A2010D030F230A0325D
:1005D000733A6131EC32E3327210F330EC34E430D0
:1005E000731061376136EF33E1390D050001412A9F
:1005F0002B28D726D022D2244F222010D030F23000
:10060000A032733A6131EC32E3327210F032F234DC
:100610006F326F10E432A03161376136E53920283E
:10062000D7260D050001412A2B28D726C42AD42C11
:100630002010D030F230A032733A6131EC32E33224
:100640007210E33463366F10E432203AF230E23055
:10065000EA3720326510E330EE30EC327310D02BE5
:10066000CD060A00412AAB20C227552A2010D030DF
:10067000F230A036EF3974396139A0346E336F39F6
:10068000ED30E3346F37203265362038F237E43A04
:10069000633AEF060A00412A2B24452650102028F1
:1006A00061396110ED37733AF2307210EC34733AFD
:1006B0006110E432A031EF366137E437F3060A0007
:1006C000CF250D050000D2224122D9060A00CF25F0
:1006D0000D0500014529D227D2060A004529D22757
:1006E000D2060A0022002E08FA002D0884007A089B
:1006F00085000008B1003008FA002F0884007A084D
:10070000850000083102031D9B2B2E08FA002D08DE
:1007100084007A0885008008031D912B0030F800C2
:10072000B12B2E08FA002D08AD0A0319AE0AAF0A44
:100730000319B00A732B2E08FA002D0884002E0826
:1007400085000008B1003008FA002F088400300846
:100750008500000831020318AF2BFF30B02B0130A9
:10076000F800200008000B088B13230095171514C0
:1007700000000000891B8B170318E82B13087F3932
:100780002200B500230011082200B6002300120841
:100790002200B70035082000111ECC2B23009A0040
:1007A000220036082300910022003708230092001F
:1007B0000B088B139517151400000000891B8B176D
:1007C0002200B40BE42BE62B2300E82B0D2C230096
:1007D000130D140D7F392200B500230011082200EB
:1007E000B600230012082200B70035082000111EB1
:1007F000F72B23009A0022003608230091002200E4
:10080000370823009200910A0319920A031022006C
:10081000B40B0B2C0D2C2000B32B20000800220061
:10082000B51B262C0F30F700340EF7050A3077027F
:1008300003181D2C3030F7071F2C3508F7077708F1
:100840002000111E212C23009A0022000F30B40535
:100850000A30340203182E2C3030302CB5133508F2
:10086000B40734082000111E332C23009A00200006
:1008700008002200B501B401B701B601B901B80101
:1008800031303202EA3E0318942C163E2000CF2C61
:100890002200B7010130B600942C2200B7010230CB
:1008A000B600942C2200B7010330B600942C22002D
:1008B000B7010430B600942C2200B7010530B60011
:1008C000942C2200B7010630B600942C2200B70108
:1008D0000730B600942C2200B7010830B600942CE3
:1008E0002200B7010930B600942C2200B7010A306B
:1008F000B600942C2200B7010B30B600942C2200D5
:10090000B7010C30B600942C2200B7010D30B600B0
:10091000942C2200B7010E30B600942C2200B701AF
:100920000F30B600942C22003308FC3E0318B02C84
:10093000043E2000E92C2200B9010130B800B02C9F
:100940002200B9011030B800B02C01302200B900EB
:10095000B801B02C10302200B900B801B02C220030
:100960002000A8018B1BA8178B1322003708C20098
:100970003608C1003908C4003808C30020007120BF
:10098000A81B8B1779082200B5007808B40034083A
:10099000F7003508F800F901FA01200008000A10F4
:1009A0008A100A158207482C4D2C522C572C5C2C8F
:1009B000612C662C6B2C702C932C932C932C932CE9
:1009C000932C932C932C752C7A2C7F2C842C892C93
:1009D0008E2C0A108A100A1582079B2CA02CA52C9D
:1009E000AA2CF53021008F0022008F11300B242D0E
:1009F000320EB300B4010F30B30533080F39F700DE
:100A0000FA01770810382000AF002200310DB30042
:100A1000320DB400B30DB40DFC30B3053308200023
:100A2000B0002400110820002F0824009100140CAD
:100A3000031C172D110820002F0824009100140C0E
:100A4000031C1F2D4E2D2200320EB300B4010F30B7
:100A5000B30533080F39F700FA0177085038200042
:100A6000AF002200310DB300320DB400B30DB40D50
:100A7000FC30B30533082000B0002400110820002A
:100A80002F0824009100140C031C432D1108200092
:100A90002F0824009100140C031C4B2DF53021006D
:100AA0008F0022008F15200008002200AD011E30AB
:100AB00020005E078400203085000318850A0008A6
:100AC0003F3C031DBC2D2C08FA012200B000200081
:100AD0002E08FA012200B1002A30230091000230D2
:100AE000920003100B302200B4002000B323220038
:100AF0003008B4003730B50020000F242B08220046
:100B0000B4003730B50020000F242C30111E862D84
:100B100023009A0032302000111E8C2D23009A00F1
:100B20002C302000111E922D23009A002200310843
:100B3000B4003730B50020000F242D082200B40087
:100B40003730B50020000F240D30111EA52D2300D5
:100B50009A000A302000111EAB2D23009A00373076
:100B60009100023092002000A8018B1BA8178B1364
:100B70007421A81B8B170E2F1E305E0784002030B7
:100B800085000318850A00083D3C031D492E0230EC
:100B90005E071E3E8400203085000318850A000889
:100BA0003F3C031D492E01305E071E3E840020306D
:100BB00085000318850A0008E6006608313C031D1D
:100BC0000B2E2C08FA012200B0003A3023009100CD
:100BD00002309200031008302200B4002000B3233A
:100BE00022003008B4003730B50020000F242B0855
:100BF0002200B4003730B50020000F240D30111E44
:100C0000FF2D23009A000A302000111E052E23001C
:100C10009A00472E20006608323C031D392E2E080C
:100C2000FA012200B000423023009100023092000D
:100C3000031008302200B4002000B3232200300843
:100C4000B4003730B50020000F242D082200B40076
:100C50003730B50020000F240D30111E2D2E23003B
:100C60009A000A302000111E332E23009A00472ECE
:100C700020004A3023009100023092002000A80199
:100C80008B1BA8178B137421A81B8B1723000F2F06
:100C900020001E305E078400203085000318850A7E
:100CA00000083D3C031D012F01305E071E3E8400FD
:100CB000203085000318850A0008E60003305E072F
:100CC0002200AD002000520822002D0203188A2EB7
:100CD0003F3020006407F8002030FA000318FA0AB9
:100CE00078082200B0007A08B1001E302D07840079
:100CF000203085000318850A0008B20031088500FD
:100D0000300884003208800001302000E40722000F
:100D1000AD0A622EAF01AE01AD01200064082200D1
:100D20002D020318B12E3F302D078400203085009E
:100D30000318850A0008B000023020006402F800A1
:100D400022002D087802B1003008B2003108B3004B
:100D50002000392477082200AE077808AF3DAD0A9D
:100D60008D2E20006608313C031DCC2E22002F085A
:100D70002000AC0022002E082000AB000130220031
:100D8000B00020002C082200B20020002B08220016
:100D9000B1002000F124F32E6608323C031DE62E3C
:100DA00022002F082000AE0022002E082000AD00F7
:100DB00002302200B00020002E082200B2002000E5
:100DC0002D082200B1002000F124F32E4E30230024
:100DD0009100023092002000A8018B1BA8178B13F2
:100DE0007421A81B8B17523023009100023092000F
:100DF0002000A8018B1BA8178B137421A81B8B172D
:100E00000E2F553023009100023092002000A801DF
:100E10008B1BA8178B137421A81B8B1723008831F9
:100E20002000642DBF30230091000230920020008A
:100E3000A8018B1BA8178B137421A81B8B17C73015
:100E400023009100023092002000A8018B1BA817FC
:100E50008B137421A81B8B17D13023009100023013
:100E600092002000A8018B1BA8178B137421A81BCC
:100E70008B178831CC2DD4302300910002309200A2
:100E80002000A8018B1BA8178B137421A81B8B179C
:100E9000E03023009100023092002000A8018B1B5B
:100EA000A8178B137421A81B8B17F7302300910010
:100EB000023092002000A8018B1BA8178B1374210D
:100EC000A81B8B17133023009100033092002000E1
:100ED000A8018B1BA8178B137421A81B8B1732300A
:100EE00023009100033092002000A8018B1BA8175B
:100EF0008B137421A81B8B174B30230091000330F8
:100F000092002000A8018B1BA8178B137421A81B2B
:100F10008B17603023009100033092002000A8015D
:100F20008B1BA8178B137421A81B8B178831F02DEE
:100F30002200AD012000520822002D020318AA2F22
:100F40001E302D078400203085000318850A80019B
:100F5000AD0A9A2F2000D2012200AD0120005D08C9
:100F600022002D020318BE2F33302D0784002030BD
:100F700085000318850A8001AD0AAE2F2000DD012F
:100F80002200AD012000640822002D020318D22F98
:100F90003F302D078400203085000318850A80012A
:0C0FA000AD0AC22F2000E4018831132E9E
:101000002200AD011E3020005E07840020308500E4
:101010000318850A00083F3C031D4B283408FA01D9
:101020002200B000593023009100023092000310DA
:101030000B302200B40080312000B323883122001D
:101040003008B4003730B500803120000F248831DB
:1010500033082200B4003730B500803120000F245F
:1010600088310D30111E322823009A000A302000EA
:10107000111E382823009A0062309100023092003D
:101080002000A8018B1BA8178B1380317421883195
:10109000A81B8B1714291E305E07840020308500A2
:1010A0000318850A00083D3C031D922801305E07A5
:1010B0001E3E8400203085000318850A00083F3C4E
:1010C000031D92283408FA012200B0006530230085
:1010D00091000230920003100B302200B4008031E6
:1010E0002000B323883122003008B4003730B50027
:1010F000803120000F24883133082200B4003730BB
:10110000B500803120000F2488310D30111E862853
:1011100023009A000A302000111E8C2823009A0018
:10112000152920001E305E0784002030850003183A
:10113000850A00083D3C031D052901305E07220099
:10114000AD002000520822002D020318C5283F30B0
:10115000200064072200B0002030B1000318B10A5B
:101160001E302D078400203085000318850A0008F2
:10117000B200310885003008840032088000013058
:101180002000E4072200AD0AA128AF01AE01AD01A5
:101190002000640822002D020318EE283F302D079E
:1011A0008400203085000318850A0008B000023052
:1011B00020006402F80022002D087802B1003008F7
:1011C000B2003108B300803120003924883177081B
:1011D0002200AE077808AF3DAD0AC8282F082000CE
:1011E000B40022002E082000B3006E3023009100CE
:1011F000023092002000A8018B1BA8178B138031AE
:1012000074218831A81B8B17142971302300910099
:10121000023092002000A8018B1BA8178B1380318D
:1012200074218831A81B8B17230088312000872D5B
:101230002200AD011E3020005E07840020308500B2
:101240000318850A00083F3C031DDB293608FA0114
:101250002200B00020003808FA012200B10020006E
:101260003A08FA012200B20020003C08FA012200EC
:10127000B3007530230091000230920003100B3050
:101280002200B40080312000B323883122003008CE
:10129000B4003730B500803120000F248831350884
:1012A0002200B4003730B500803120000F2488318F
:1012B0002C30111E592923009A0032302000111EB3
:1012C0005F2923009A002C302000111E652923007D
:1012D0009A0022003108B4003730B5008031200078
:1012E0000F24883137082200B4003730B500803130
:1012F00020000F2488312C30111E7C2923009A00F5
:1013000033302000111E822923009A002C30200047
:10131000111E882923009A0022003208B4003730B9
:10132000B500803120000F24883139082200B40034
:101330003730B500803120000F2488312C30111E49
:101340009F2923009A0034302000111EA529230074
:101350009A002C302000111EAB2923009A00220095
:101360003308B4003730B500803120000F248831B5
:101370003B082200B4003730B500803120000F2434
:1013800088310D30111EC22923009A000A30200036
:10139000111EC82923009A00893091000230920062
:1013A0002000A8018B1BA8178B1380317421883172
:1013B000A81B8B17AB2B1E305E07840020308500E6
:1013C0000318850A00083D3C031DDE2A02305E0733
:1013D0001E3E8400203085000318850A00083F3C2B
:1013E000031DDE2A01305E071E3E8400203085008A
:1013F0000318850A0008E5006508313C031D302A02
:101400003608FA012200B0008C302300910002302F
:10141000920003100A302200B40080312000B32370
:10142000883122003008B4003730B5008031200008
:101430000F24883135082200B4003730B5008031E0
:1014400020000F2488310D30111E242A23009A0019
:101450000A302000111E2A2A23009A00DC2A2000CC
:101460006508323C031D642A3808FA012200B000E6
:101470009530230091000230920003100A302200C0
:10148000B40080312000B323883122003008B4003A
:101490003730B500803120000F2488313708220012
:1014A000B4003730B500803120000F2488310D3072
:1014B000111E582A23009A000A302000111E5E2AAD
:1014C00023009A00DC2A20006508333C031D982A7B
:1014D0003A08FA012200B0009E3023009100023049
:1014E000920003100A302200B40080312000B323A0
:1014F000883122003008B4003730B5008031200038
:101500000F24883139082200B4003730B50080310B
:1015100020000F2488310D30111E8C2A23009A00E0
:101520000A302000111E922A23009A00DC2A200093
:101530006508343C031DCC2A3C08FA012200B000A7
:10154000A730230091000230920003100A302200DD
:10155000B40080312000B323883122003008B40069
:101560003730B500803120000F2488313B0822003D
:10157000B4003730B500803120000F2488310D30A1
:10158000111EC02A23009A000A302000111EC62A0C
:1015900023009A00DC2A2000B030230091000230A2
:1015A00092002000A8018B1BA8178B138031742197
:1015B0008831A81B8B172300AC2B20001E305E0740
:1015C0008400203085000318850A00083D3C031D77
:1015D0009C2B01305E071E3E8400203085000318DE
:1015E000850A0008E50003305E072200AD002000F8
:1015F000520822002D0203181F2B3F3020006407E1
:10160000F8002030FA000318FA0A78082200B00027
:101610007A08B1001E302D078400203085000318A1
:10162000850A0008B20031088500300884003208BD
:10163000800001302000E4072200AD0AF72AAF0144
:10164000AE01AD012000640822002D020318482BD2
:101650003F302D078400203085000318850A0008DC
:10166000B000023020006402F80022002D08780249
:10167000B1003008B2003108B300803120003924B5
:10168000883177082200AE077808AF3DAD0A222BDB
:1016900020006508313C031D562B22002F08200036
:1016A000B60022002E082000B5008C2B6508323CC5
:1016B000031D632B22002F082000B80022002E08F3
:1016C0002000B7008C2B6508333C031D702B2200D3
:1016D0002F082000BA0022002E082000B9008C2B11
:1016E0006508343C031D7D2B22002F082000BC0020
:1016F00022002E082000BB008C2BB4302300910068
:10170000023092002000A8018B1BA8178B13803198
:1017100074218831A81B8B17B83023009100023048
:1017200092002000A8018B1BA8178B138031742115
:101730008831A81B8B17AB2BBB30230091000230E4
:1017400092002000A8018B1BA8178B1380317421F5
:101750008831A81B8B17230088312000A92D230076
:101760009F1508309B0002309C00A6309E009030F0
:101770009D0024009512403094000B3092003A30C6
:10178000950021008E120E168E112000AC01AB01C7
:10179000AE01AD01AF01B001B201B1010530B4003D
:1017A0002430B300B601B501B801B701BA01B901DF
:1017B000BC01BB01BD01D201DD01DE01E401E50197
:1017C000E601F0012F0091019201980199019A011F
:1017D00023008C018D018F01900122009201910163
:1017E00094019301632C0234003429340034003412
:1017F000143440343E3400340A344034533400341A
:10180000053440345F3400340634003468344134E5
:101810004E344F3455345434003406340034A2343A
:1018200061346E346F347534743400341C340034D5
:10183000AC34503457344D34503445345234493438
:101840004F3444340034703477346D34703465343C
:10185000723469346F3464340034503457344D3446
:101860004434553454345934003408340034CA34C0
:10187000703477346D3464347534743479340034AE
:1018800006340034D434413442344F345534543463
:10189000003406340034DE34613462346F3475341D
:1018A0007434003405340034E834483445344C345E
:1018B00050340034053401342234683465346C34D7
:1018C0007034003400340B308500F3308400851709
:1018D0001200F700003A03197D2C1200F800F81BE3
:1018E000752C0F39870012008600781B1200781FB4
:1018F00012001E00F70B772C682CCF3066000D12FB
:1019000066008D12F53021008F0022008F15210016
:101910000E1122000E1121008E1022008E102100C7
:1019200010102200101021008F0022008F102100C3
:101930008F0022008F1110302000AF00B001240072
:10194000110820002F0824009100140C031CA52C62
:10195000110820002F0824009100140C031CAD2C4A
:1019600050302000AF00B0012400110820002F08E3
:1019700024009100140C031CBA2C110820002F081D
:1019800024009100140C031CC22CF53021008F00A0
:1019900022008F150030F800043820009C004B30E6
:1019A0009B00210091149116C0308B042000E701A8
:1019B000633023009100033092002000A8018B1BAC
:1019C000A8178B13803174218831A81B8B17700BDB
:1019D000152EBE08031DFC2C673023009100033038
:1019E00092002000A8018B1BA8178B138031742153
:1019F0008831A81B8B17112E3E082B3C031D022E8D
:101A000001302200AC002000520822002C020318F2
:101A1000432D1E302C078400203085000318850AD2
:101A200000083D3C03191F2D1E302C078400203078
:101A300085000318850A00083F3C031D252D2C084E
:101A40002000DE002200432D412D333020005D07B1
:101A50002200AD002030AE000318AE0A1E302C0765
:101A60008400203085000318850A0008AF002E0886
:101A700085002D0884002F08800001302000DD073C
:101A80002200AC0A032D2030AE003330AD002030F0
:101A9000B0004830AF008031200072238831F80850
:101AA0000319622D20302200AE003330AD0020300B
:101AB000B0005230AF008031200072238831F80826
:101AC000031D662D8031552D8831012E20302200D6
:101AD000AE003330AD002030B0005C30AF0080315C
:101AE000200072238831F8080319862D2030220047
:101AF000AE003330AD002030B0006630AF00803132
:101B0000200072238831F808031D882D0028012E3B
:101B100020302200AE003330AD002030B0007030F5
:101B2000AF008031200072238831F8080319A82DF6
:101B300020302200AE003330AD002030B0007A30CB
:101B4000AF008031200072238831F808031DAA2DD0
:101B50001829012E20302200AE003330AD00203095
:101B6000B0008430AF008031200072238831F80843
:101B70000319CA2D20302200AE003330AD002030D2
:101B8000B0008E30AF008031200072238831F80819
:101B9000031DCE2D8031122F8831012E20302200DE
:101BA000AE003330AD002030B0009830AF0080314F
:101BB000200072238831F8080319EE2D203022000E
:101BC000AE003330AD002030B000A230AF00803125
:101BD000200072238831F808031DF22D80313B2F3D
:101BE0008831012E6A3023009100033092002000DA
:101BF000A8018B1BA8178B13803174218831A81B77
:101C00008B17112E6E3023009100033092002000BC
:101C1000A8018B1BA8178B13803174218831A81B56
:0E1C20008B178031982F8831F001E72C63007C
:020000040001F9
:04000E00C239FF1ED6
:00000001FF
;PIC16F1939
;CRC=B320  CREATED="26-ago.-22 22:05"
