:0600000088310028000019
:0800080083018031200077081C
:10001000A0007808A1007908A2007A08A3002300B4
:1000200011082000A400230012082000A5002300CE
:1000300013082000A600230014082000A700850153
:1000400091308400801C2628911846288501913023
:100050008400801E2D28911A48282008F7002108C6
:10006000F8002208F9002308FA0024082300910070
:10007000200025082300920020002608230093007A
:1000800020002708230094000900200080318828E0
:100090008031C629F801F901F701FA01220044086C
:1000A000031D5528430803196F281030C50003109D
:1000B000C10DC20DF70DFA0D44087A02031D622826
:1000C00043087702031C6B284308F702031CFA035A
:1000D0004408FA020314F80DF90DC50B5728200047
:1000E000080010302200C700F701FA01C40CC30C4D
:1000F000031C80284508F7070318FA0A4608FA0780
:10010000FA0CF70CF90CF80CC70B76282000080045
:1001100031082F02031D932832083002031D932853
:10012000B001AF0197280130AF070030B03D320871
:100130002200C200200031082200C100C401643046
:10014000C30020004A2079082200C2007808C100BC
:100150004208C4004108C300200034082200C60041
:10016000200033082200C500200071207908FA0021
:1001700030087A02031CC828031DC22878082F0201
:100180000318C82821000E1122000E15CC282000CB
:1001900021000E1122000E11200032082200C200A0
:1001A000200031082200C100C4016430C3002000D7
:1001B0004A2079082200C2007808C1004208C40021
:1001C0004108C300200036082200C6002000350880
:1001D0002200C500200071207908FA0030087A0258
:1001E000031CFE28031DF82878082F020318FE2898
:1001F00021008E1022008E140229200021008E1072
:1002000022008E10200032082200C2002000310897
:100210002200C100C4016430C30020004A207908D4
:100220002200C2007808C1004208C4004108C3008F
:10023000200038082200C600200037082200C50030
:10024000200071207908FA0030087A02031C342952
:10025000031D2E2978082F020318342921001010BD
:100260002200101438292000210010102200101044
:10027000200032082200C200200031082200C10004
:10028000C4016430C30020004A2079082200C20063
:100290007808C1004208C4004108C30020003A08A1
:1002A0002200C600200039082200C500200071206D
:1002B0007908FA0030087A02031C6B29031D6429AF
:1002C00078082F0203186B29F53021008F002200D7
:1002D0008F1470292000F53021008F0022008F102C
:1002E0002000911080312D280B088B1323009517C7
:1002F000151400000000891B8B1713087F390319A0
:10030000C4292200C100230011082200C2002300DA
:1003100012082200C30041082000111E8D2923006D
:100320009A00220042082300910022004308230083
:1003300092000B088B139517151400000000891B01
:100340008B17130D140D7F390319C4292200C10026
:10035000230011082200C200230012082200C3005B
:1003600041082000111EB22923009A0022004208F1
:10037000230091002200430823009200910A0319F0
:10038000920A20007429230020000800911EC6292B
:10039000230019082000BF0068080319D629013A74
:1003A0000319EA29033A0319FE29142A3F08413C9C
:1003B0000319DE293F08613C031DE1290130E800F3
:1003C000E9291E30230091000230920020007421A0
:1003D000E8011B2A3F08543C0319F2293F08743CEA
:1003E000031DF5290230E800FD2922302300910089
:1003F0000230920020007421E8011B2A3F080D3CC6
:10040000031D062A0130F000E801132A20305407AA
:100410008400203085000318850A3F0880000130E1
:10042000D4070230E8001B2A263023009100023056
:10043000920020007421911280312D284529D22765
:10044000D2060A004529D227D2060A004529D2271A
:10045000D2060A00D2224122D9060A00CF250D0574
:1004600000002B28D726D022D2244F22BA12D8122D
:10047000D8060A00CF250D0500012B28D726D0224B
:10048000D2244F22BA12D812D8060A00CF250D0561
:1004900000014529D227D2060A002B28D726C42AD4
:1004A000D42CBA18AC12D81258163216252C252C7A
:1004B000AC19AC12D81258163416252C252C0D0563
:1004C0000001CF250D0500012B28D726C42AD42CE6
:1004D000311D252C252C0D0500012B28D726C42ADB
:1004E000D42C321D252C252C0D0500012B28D726B8
:1004F000C42AD42C331D252C252C0D0500012B28B6
:10050000D726C42AD42C341D252C252C0D050001FA
:100510004529D227D2060A004529D227D2060A0049
:10052000CF250D0500014529D227D2060A00D63273
:10053000F239E9376E1DA0182E180D050001C430E0
:10054000F4323A10321B2F18B817321832190D0531
:100550000001CF250D050001412A2010C337ED30E1
:100560006E326F10E4322038F23A6531E1060A004B
:10057000412AAB20CE27552A2010D030F230A032AD
:10058000733A6131EC32E3327210F330EC34E43020
:10059000731061376136EF33E1390D050001412AEF
:1005A0002B28D726D022D2244F222010D030F23050
:1005B000A032733A6131EC32E3327210F032F2342D
:1005C0006F326F10E432A03161376136E53920288F
:1005D000D7260D050001412A2B28D726C42AD42C62
:1005E0002010D030F230A032733A6131EC32E33275
:1005F0007210E33463366F10E432203AF230E230A6
:10060000EA3720326510E330EE30EC327310D02B35
:10061000CD060A00412AAB20C227552A2010D0302F
:10062000F230A036EF3974396139A0346E336F3946
:10063000ED30E3346F37203265362038F237E43A54
:10064000633AEF060A00412A2B2445265010202841
:1006500061396110ED37733AF2307210EC34733A4D
:100660006110E432A031EF366137E437F3060A0057
:10067000CF250D0500014529D227D2060A004529BC
:10068000D227D2060A0022003308FA00320884007A
:100690007A0885000008B6003508FA00340884009E
:1006A0007A08850000083602031D6C2B3308FA0017
:1006B000320884007A0885008008031D622B003010
:1006C000F800822B3308FA003208B20A0319B30A81
:1006D000B40A0319B50A442B3308FA00320884001F
:1006E000330885000008B6003508FA003408840095
:1006F00035088500000836020318802BFF30812B57
:100700000130F80020000800800803199A2B050822
:100710002200B3000408B20000082000111E8E2B36
:1007200023009A002200330885003208840001313A
:100730002000842B883187290B088B132300951701
:10074000151400000000891B8B170318D12B130808
:100750007F392200B700230011082200B8002300CF
:1007600012082200B90037082000111EB52B230003
:100770009A00220038082300910022003908230043
:1007800092000B088B139517151400000000891BAD
:100790008B172200B60BCD2BCF2B2300D12BF62BA2
:1007A0002300130D140D7F392200B7002300110818
:1007B0002200B800230012082200B90037082000E8
:1007C000111EE02B23009A0022003808230091001C
:1007D0002200390823009200910A0319920A03109B
:1007E0002200B60BF42BF62B20009C2B20000800D7
:1007F0002200B71B0F2C0F30F700360EF7050A301A
:1008000077020318062C3030F707082C3708F70753
:1008100077082000111E0A2C23009A0022000F30B6
:10082000B6050A3036020318172C3030192CB713CE
:100830003708B60736082000111E1C2C23009A002A
:10084000200008002200B701B601B901B801BB01C0
:10085000BA0131303402EA3E03187D2C163E2000E6
:10086000B82C2200B9010130B8007D2C2200B9015A
:100870000230B8007D2C2200B9010330B8007D2C75
:100880002200B9010430B8007D2C2200B9010530E6
:10089000B8007D2C2200B9010630B8007D2C220062
:1008A000B9010730B8007D2C2200B9010830B8002A
:1008B0007D2C2200B9010930B8007D2C2200B9013D
:1008C0000A30B8007D2C2200B9010B30B8007D2C15
:1008D0002200B9010C30B8007D2C2200B9010D3086
:1008E000B8007D2C2200B9010E30B8007D2C22000A
:1008F000B9010F30B8007D2C22003508FC3E0318EA
:10090000992C043E2000D22C2200BB010130BA00F9
:10091000992C2200BB011030BA00992C0130220022
:10092000BB00BA01992C10302200BB00BA01992CEF
:1009300022002000A8018B1BA8178B132200390866
:10094000C4003808C3003B08C6003A08C5002000B0
:100950007120A81B8B1779082200B7007808B60011
:100960003608F7003708F800F901FA0120000800FE
:100970000A108A100A158207312C362C3B2C402C89
:10098000452C4A2C4F2C542C592C7C2C7C2C7C2C08
:100990007C2C7C2C7C2C7C2C5E2C632C682C6D2C71
:1009A000722C772C0A108A100A158207842C892C45
:1009B0008E2C932C111EDA2C23009A0020000800A4
:1009C0002200B20120005408220032020318F72C42
:1009D000203032078400203085000318850A000883
:1009E000B30033082000DA242200B20AE22C0D30D2
:1009F0002000111EF92C23009A000A302000111E3D
:100A0000FF2C23009A002200B20120005F08220080
:100A1000320203181A2D3530320784002030850049
:100A20000318850A0008B30033082000DA242200E6
:100A3000B20A052D0D302000111E1C2D23009A0036
:100A40000A302000111E222D23009A002200B2013C
:100A5000200066082200320203183D2D4130320783
:100A60008400203085000318850A0008B30033088D
:100A70002000DA242200B20A282D0D302000111E99
:100A80003F2D23009A000A302000111E452D23001F
:100A90009A0088312000572E2200B201200054080D
:100AA0002200320203185E2D2030320784002030ED
:100AB00085000318850A8001B20A4E2D2000D4015A
:100AC0002200B20120005F08220032020318722DBA
:100AD000353032078400203085000318850A8001F4
:100AE000B20A622D2000DF012200B2012000660858
:100AF000220032020318862D413032078400203054
:100B000085000318850A8001B20A762D2000E601CF
:040B100088316A2E90
:1010000023009F1508309B0002309C00A6309E00F4
:1010100090309D0024009512403094000B309200D7
:101020003A30950021008E120E168E112000B0016C
:10103000AF011930B200B330B100B4011930B300C0
:10104000B6013230B500B8014B30B700BA01643098
:10105000B900BC01BB01BE01BD01BF01D401DF016C
:10106000E001E601E701F0012F00910192019801F2
:1010700099019A0123008C018D018F0190012200BA
:101080009201910194019301B5280234003429346E
:101090000034003414344034403400340A344034D2
:1010A000553400340534403461340034063400349F
:1010B000693441344E344F3455345434003406349A
:1010C0000034A33461346E346F34753474340034B6
:1010D0001C340034AD34503457344D34503445341E
:1010E000523449344F3444340034703477346D34DE
:1010F00070346534723469346F346434003450347D
:1011000057344D344434553454345934003408344D
:101110000034CB34703477346D34643475347434C3
:101120007934003406340034D534413442344F34F9
:1011300055345434003406340034DF3461346234BE
:101140006F3475347434003405340034E934483471
:1011500045344C345034003405340134233468347D
:1011600065346C3470340034003408308500453008
:10117000840085171200F700003A0319CF281200E7
:10118000F800F81BC7280F39870012008600781B6B
:101190001200781F12001E00F70BC928BA28CF30A2
:1011A00066000D1266008D12F53021008F002200BE
:1011B0008F1521000E1122000E1121008E10220029
:1011C0008E10210010102200101021008F0022002C
:1011D0008F100030F800043820009C004B309B003A
:1011E000210091149116C0308B042000E8012A30B0
:1011F00023009100023092002000A8018B1BA81749
:101200008B13803174218831A81B8B17700B6C2EC7
:10121000C008031D1B292E302300910002309200CC
:101220002000A8018B1BA8178B13803174218831F3
:10123000A81B8B17682E40082B3C031D592E01302C
:101240002200AD002000540822002D02031862295C
:1012500020302D078400203085000318850A0008FF
:101260003D3C03193E2920302D07840020308500A5
:101270000318850A00083F3C031D44292D0820005F
:10128000E000220062296029353020005F0722003B
:10129000B2002030B3000318B30A20302D078400B9
:1012A000203085000318850A0008B4003308850043
:1012B000320884003408800001302000DF0722005B
:1012C000AD0A22292030B3003530B2002030B500FD
:1012D0004930B4008031200043238831F8080319D5
:1012E000812920302200B3003530B2002030B50013
:1012F0005330B4008031200043238831F808031DA7
:10130000892920308500493084008031842B883140
:10131000532E20302200B3003530B2002030B5000B
:101320005D30B4008031200043238831F808031970
:10133000A92920302200B3003530B2002030B5009A
:101340006730B4008031200043238831F808031D42
:10135000BD2A203060078400203085000318850AEC
:1013600000083F3C031DF1293208FA012200B200B7
:101370003130230091000230920003100B30220024
:10138000B600803120009C23883122003208B6004C
:101390003730B70080312000F8238831310822002F
:1013A000B6003730B70080312000F82388310D3087
:1013B000111ED82923009A000A302000111EDE29B0
:1013C00023009A003A309100023092002000A801D8
:1013D0008B1BA8178B13803174218831A81B8B17A6
:1013E000BA2A203060078400203085000318850A5F
:1013F00000083D3C031D382A01306007203E840070
:10140000203085000318850A00083F3C031D382A58
:101410003208FA012200B2003D3023009100023070
:10142000920003100B302200B600803120009C2374
:10143000883122003208B6003730B70080312000F2
:10144000F823883131082200B6003730B7008031E8
:101450002000F82388310D30111E2C2A23009A0019
:101460000A302000111E322A23009A00BB2A2000D5
:10147000203060078400203085000318850A0008AA
:101480003D3C031DAB2A013060072200AD002D0852
:1014900020005402031C6A2A413066072200B20071
:1014A0002030B3000318B30A20302D078400203009
:1014B00085000318850A0008B40033088500320847
:1014C00084003408800001302000E6072200AD0AC5
:1014D000472A20002200AF01AE01AD0120006608BE
:1014E00022002D020318942A41302D078400203059
:1014F00085000318850A0008B20002302000660249
:10150000F80022002D087802B3003208B400330836
:10151000B500803120002224883177082200AE07F0
:101520007808AF3DAD0A6E2A2F082000B2002200D5
:101530002E082000B10046302300910002309200B6
:101540002000A8018B1BA8178B13803174218831D0
:10155000A81B8B17BA2A4930230091000230920051
:101560002000A8018B1BA8178B13803174218831B0
:10157000A81B8B172300542E200020302200B3001C
:101580003530B2002030B5007130B4008031200019
:1015900043238831F8080319DD2A20302200B300E4
:1015A0003530B2002030B5007B30B40080312000EF
:1015B00043238831F808031D6C2D20306007840018
:1015C000203085000318850A00083F3C031D9D2B31
:1015D0003408FA012200B20020003608FA01220085
:1015E000B30020003808FA012200B40020003A08B5
:1015F000FA012200B5004D30230091000230920024
:1016000003100B302200B600803120009C2388316B
:1016100022003208B6003730B70080312000F823AE
:10162000883133082200B6003730B70080312000FF
:10163000F82388312C30111E1B2B23009A003230E6
:101640002000111E212B23009A002C302000111E97
:10165000272B23009A0022003308B6003730B7004A
:1016600080312000F823883135082200B600373059
:10167000B70080312000F82388312C30111E3E2B1A
:1016800023009A0033302000111E442B23009A00BF
:101690002C302000111E4A2B23009A00220034080F
:1016A000B6003730B70080312000F8238831370882
:1016B0002200B6003730B70080312000F82388318F
:1016C0002C30111E612B23009A0034302000111E93
:1016D000672B23009A002C302000111E6D2B230055
:1016E0009A0022003508B6003730B700803120005C
:1016F000F823883139082200B6003730B70080312E
:101700002000F82388310D30111E842B23009A000D
:101710000A302000111E8A2B23009A0061309100AC
:10172000023092002000A8018B1BA8178B13803178
:1017300074218831A81B8B17692D20306007840025
:10174000203085000318850A00083D3C031DA02CAD
:1017500002306007203E8400203085000318850A8F
:1017600000083F3C031DA02C01306007203E840090
:10177000203085000318850A0008E7006708313C1F
:10178000031DF22B3408FA012200B200643023005A
:1017900091000230920003100A302200B60080311E
:1017A00020009C23883122003208B6003730B70071
:1017B00080312000F823883133082200B60037300A
:1017C000B70080312000F82388310D30111EE62B40
:1017D00023009A000A302000111EEC2B23009A00EF
:1017E0009E2C20006708323C031D262C3608FA0187
:1017F0002200B2006D3023009100023092000310ED
:101800000A302200B600803120009C23883122005B
:101810003208B6003730B70080312000F823883115
:1018200035082200B6003730B70080312000F82399
:1018300088310D30111E1A2C23009A000A30200026
:10184000111E202C23009A009E2C20006708333C98
:10185000031D5A2C3808FA012200B200763023000A
:1018600091000230920003100A302200B60080314D
:1018700020009C23883122003208B6003730B700A0
:1018800080312000F823883137082200B600373035
:10189000B70080312000F82388310D30111E4E2C06
:1018A00023009A000A302000111E542C23009A00B5
:1018B0009E2C20006708343C031D8E2C3A08FA0148
:1018C0002200B2007F30230091000230920003100A
:1018D0000A302200B600803120009C23883122008B
:1018E0003208B6003730B70080312000F823883145
:1018F00039082200B6003730B70080312000F823C5
:1019000088310D30111E822C23009A000A302000ED
:10191000111E882C23009A009E2C20008830230062
:101920009100023092002000A8018B1BA8178B1396
:10193000803174218831A81B8B1723006A2D200069
:10194000203060078400203085000318850A0008D5
:101950003D3C031D5A2D01306007203E840020309D
:1019600085000318850A0008E7000330600722009D
:10197000AD002D0820005402031CDC2C413066070A
:101980002200B2002030B3000318B30A20302D0724
:101990008400203085000318850A0008B40033084D
:1019A0008500320884003408800001302000E607FA
:1019B0002200AD0AB92C20002200B101B001AD0116
:1019C0002000660822002D020318062D41302D0745
:1019D0008400203085000318850A0008B200023018
:1019E00020006602F80022002D087802B3003208B9
:1019F000B4003308B50080312000222488317708F4
:101A00002200B0077808B13DAD0AE02C200067083D
:101A1000313C031D142D220031082000B4002200A7
:101A200030082000B3004A2D6708323C031D212DE9
:101A3000220031082000B600220030082000B50046
:101A40004A2D6708333C031D2E2D2200310820004B
:101A5000B800220030082000B7004A2D6708343C47
:101A6000031D3B2D220031082000BA00220030085F
:101A70002000B9004A2D8C302300910002309200E2
:101A80002000A8018B1BA8178B138031742188318B
:101A9000A81B8B1790302300910002309200200089
:101AA000A8018B1BA8178B13803174218831A81BC8
:101AB0008B17692D93302300910002309200200093
:101AC000A8018B1BA8178B13803174218831A81BA8
:101AD0008B172300542E200020302200B300353015
:101AE000B2002030B5008530B4008031200043239F
:101AF0008831F80803198C2D20302200B3003530CE
:101B0000B2002030B5008F30B40080312000432374
:101B10008831F808031DBA2D973023009100023058
:101B200092002000A8018B1BA8178B138031742111
:101B30008831A81B8B179F30230091000230920040
:101B40002000A8018B1BA8178B13803174218831CA
:101B5000A81B8B17A93023009100023092002000AF
:101B6000A8018B1BA8178B13803174218831A81B07
:101B70008B17532E20302200B3003530B2002030B6
:101B8000B5009930B4008031200043238831F80833
:101B90000319DA2D20302200B3003530B200203096
:101BA000B500A330B4008031200043238831F80809
:101BB000031D442EAC30230091000230920020001F
:101BC000A8018B1BA8178B13803174218831A81BA7
:101BD0008B17B83023009100023092002000A8013A
:101BE0008B1BA8178B13803174218831A81B8B178E
:101BF000CF3023009100023092002000A8018B1BFF
:101C0000A8178B13803174218831A81B8B17EB30F8
:101C100023009100023092002000A8018B1BA8171E
:101C20008B13803174218831A81B8B170A30230055
:101C30009100033092002000A8018B1BA8178B1382
:101C4000803174218831A81B8B1723302300910029
:101C5000033092002000A8018B1BA8178B13803142
:101C600074218831A81B8B17383023009100033072
:101C700092002000A8018B1BA8178B1380317421C0
:101C80008831A81B8B17532E3B3023009100033063
:101C900092002000A8018B1BA8178B1380317421A0
:101CA0008831A81B8B17230080312000E02C88315D
:101CB000682E3F3023009100033092002000A801DD
:101CC0008B1BA8178B13803174218831A81B8B17AD
:0C1CD00080314C2D8831F00106296300A2
:020000040001F9
:04000E00C239FF1ED6
:00000001FF
;PIC16F1939
;CRC=2F62  CREATED="26-ago.-22 20:52"
