:10000000803118280000203085000230840000086C
:10001000031917280630F800F701F70B0D28F80B25
:100020000C287B30F700F70B1328800B0A280800F8
:1000300023009F1508309B0002309C00A6309E00D4
:1000400090309D0024009512403094000B309200B7
:100050003A30950021008E120E168E112F0091015C
:100060009201980199019A0123008C018D018F0161
:10007000900122009201910194019301CF3066001A
:100080000D1266008D12F73021008F0022008F15AF
:100090000030F800043820009C0032309B00210022
:1000A0000E1122000E110C302500930094019501D1
:1000B0001E109E100130960022001D101D122100FE
:1000C0008E1022008E100C3025009A009B019C019E
:1000D0001E119E1101309D0022001D1321001010E1
:1000E000220010100C302600930094019501250089
:1000F0001E129E12013026009600F73021008F005C
:1001000022008F100C3026009A0025001E139E132B
:10011000210010112200101126009E0025001F1042
:100120009F1091011308CF39930098011A08CF3915
:100130009A00260091011308CF39930098011A08FC
:10014000CF399A009C011E08CF399E00CF3066003F
:1001500022000D1266008D1602302000A100FA3038
:10016000A2000320A10BAF28CF30660022000D169D
:1001700066008D1202302000A100FA30A200032098
:10018000A10BBD28F73021008F00083022008F0618
:060190002600A628630012
:020000040001F9
:04000E00C239FF1ED6
:00000001FF
;PIC16F1939
;CRC=6FEB  CREATED="24-ago.-22 22:46"
