:060000008031972A000088
:0800080083018031200077081C
:10001000A0007808A1007908A2007A08A3002300B4
:1000200011082000A400230012082000A5002300CE
:1000300013082000A600230014082000A700850153
:1000400091308400801C2628911846288501913023
:100050008400801E2D28911A48282008F7002108C6
:10006000F8002208F9002308FA0024082300910070
:10007000200025082300920020002608230093007A
:1000800020002708230094000900200080318828E0
:100090008031C629F801F901F701FA0122002A0886
:1000A000031D5528290803196F281030AB000310D1
:1000B000A70DA80DF70DFA0D2A087A02031D622874
:1000C00029087702031C6B282908F702031CFA038E
:1000D0002A08FA020314F80DF90DAB0B572820007B
:1000E000080010302200AD00F701FA01AA0CA90C9B
:1000F000031C80282B08F7070318FA0A2C08FA07B4
:10010000FA0CF70CF90CF80CAD0B7628200008005F
:100110002D082B02031D93282E082C02031D932863
:10012000AC01AB0197280130AB070030AC3D2E0885
:100130002200A80020002D082200A700AA01643098
:10014000A90020004A2079082200A8007808A7000A
:100150002808AA002708A900200030082200AC00C7
:1001600020002F082200AB00200071207908FA003F
:100170002C087A02031CC828031DC22878082B0209
:100180000318C82821000E1122000E15CC282000CB
:1001900021000E1122000E1120002E082200A800BE
:1001A00020002D082200A700AA016430A900200029
:1001B0004A2079082200A8007808A7002808AA0089
:1001C0002708A900200032082200AC0020003108D6
:1001D0002200AB00200071207908FA002C087A0276
:1001E000031CFE28031DF82878082B020318FE289C
:1001F00021008E1022008E140229200021008E1072
:1002000022008E1020002E082200A80020002D08B9
:100210002200A700AA016430A90020004A20790822
:100220002200A8007808A7002808AA002708A9002B
:10023000200034082200AC00200033082200AB006C
:10024000200071207908FA002C087A02031C342956
:10025000031D2E2978082B020318342921001010C1
:100260002200101438292000210010102200101044
:1002700020002E082200A80020002D082200A70040
:10028000AA016430A90020004A2079082200A800B1
:100290007808A7002808AA002708A9002000360827
:1002A0002200AC00200035082200AB0020007120A5
:1002B0007908FA002C087A02031C6B29031D6429B3
:1002C00078082B0203186B29F53021008F002200DB
:1002D0008F1470292000F53021008F0022008F102C
:1002E0002000911080312D280B088B1323009517C7
:1002F000151400000000891B8B1713087F390319A0
:10030000C4292200A700230011082200A80023000E
:1003100012082200A90027082000111E8D292300A1
:100320009A002200280823009100220029082300B7
:1003300092000B088B139517151400000000891B01
:100340008B17130D140D7F390319C4292200A70040
:10035000230011082200A800230012082200A9008F
:1003600027082000111EB22923009A002200280825
:10037000230091002200290823009200910A03190A
:10038000920A20007429230020000800911EC6292B
:10039000230019082000B70059080319D629013A8B
:1003A0000319EA29033A0319FE29142A3708413CA4
:1003B0000319DE293708613C031DE1290130D9000A
:1003C000E9291E30230091000230920020007421A0
:1003D000D9011B2A3708543C0319F2293708743C09
:1003E000031DF5290230D900FD2922302300910098
:1003F0000230920020007421D9011B2A37080D3CDD
:10040000031D062A0130F000D901132A18304C07C9
:100410008400203085000318850A370880000130E9
:10042000CC070230D9001B2A26302300910002306D
:10043000920020007421911280312D284529D22765
:10044000D2060A004529D227D2060A004529D2271A
:10045000D2060A00D2224122D9060A00CF250D0574
:1004600000004529D227D2060A004529D227D20604
:100470000A0022002308FA00220884007A08850076
:100480000008A6002508FA00240884007A088500E0
:1004900000082602031D622A2308FA0022088400AD
:1004A0007A0885008008031D582A0030F800782A51
:1004B0002308FA002208A20A0319A30AA40A0319AE
:1004C000A50A3A2A2308FA00220884002308850096
:1004D0000008A6002508FA002408840025088500E5
:1004E000000826020318762AFF30772A0130F80028
:1004F0002000080080080319902A05082200A300A4
:100500000408A20000082000111E842A23009A007B
:1005100022002308850022088400013120007A2A65
:100520000800111E912A23009A00200008002300D1
:100530009F1508309B0002309C00A6309E00903032
:100540009D0024009512403094000B3092003A3008
:10055000950021008E120E168E112000AC01AB0109
:100560001930AE00B330AD00B0011930AF00B201A8
:100570003230B100B4014B30B300B6016430B50085
:10058000B701CC01D701D801F0012F0091019201F0
:10059000980199019A0123008C018D018F0190012E
:1005A00022009201910194019301452B0234003401
:1005B00029340034003414344034383400340A34DC
:1005C00040344D340034063400345A3441344E340F
:1005D0004F345534543400340634003464346134B8
:1005E0006E346F34753474340034023400346E3435
:1005F000503457341A340034A0344D345034453418
:10060000523449344F3444340034703477346D34C8
:1006100070346534723469346F3464340034503467
:1006200057344D3444345534543459340034083438
:100630000034BC34703477346D34643475347434BD
:100640007934003406340034C634413442344F34F3
:1006500055345434003406340034D03461346234B8
:100660006F3475347434003405340034DA3448346B
:1006700045344C345034003405340034E4346834A8
:1006800065346C3470340034003402308500D63068
:10069000840085171200F700003A03195F2B12003F
:1006A000F800F81B572B0F39870012008600781BC3
:1006B0001200781F12001E00F70B592B4A2BCF3067
:1006C00066000D1266008D12F53021008F002200A9
:1006D0008F1521000E1122000E1121008E10220014
:1006E0008E10210010102200101021008F00220017
:1006F0008F100030F800043820009C004B309B0025
:10070000210091149116C0308B042000D9012A30A9
:1007100023009100023092002000A8018B1BA81733
:100720008B137421A81B8B17700B2B2DB808031D7E
:10073000A72B2E3023009100023092002000A80148
:100740008B1BA8178B137421A81B8B17012D38083E
:100750002B3C031DF42C01302100EE0020004C083E
:1007600021006E020318F42B18306E07840020302D
:1007700085000318850A00083D3C0319CA2B183070
:100780006E078400203085000318850A00083F3C6E
:10079000031DD02B6E082000D8002100F42BF22B73
:1007A0002D3020005707F8002030FA000318FA0A0D
:1007B00078082200A2007A08A300183021006E07F2
:1007C0008400203085000318850A00082200A40058
:1007D00023088500220884002408800001302000BE
:1007E000D7072100EE0AAE2B20302200A3002D30C7
:1007F000A2002030A5003A30A40020003922F808D9
:100800000319102C20302200A3002D30A20020302C
:10081000A5004430A40020003922F808031D162C3E
:10082000203085003A3084007A22AB2C2030220020
:10083000A3002D30A2002030A5004E30A4002000DF
:100840003922F8080319322C20302200A3002D3061
:10085000A2002030A5005830A40020003922F8085A
:10086000031D382C203085004E3084007A22AB2CBA
:1008700020302200A3002D30A2002030A5006230DD
:10088000A40020003922F8080319542C203022003B
:10089000A3002D30A2002030A5006C30A400200061
:1008A0003922F808031D5A2C20308500623084005C
:1008B0007A22AB2C20302200A3002D30A200203061
:1008C000A5007630A40020003922F8080319762C00
:1008D00020302200A3002D30A2002030A50080305F
:1008E000A40020003922F808031D7C2C203085004C
:1008F000763084007A22AB2C20302200A3002D30E9
:10090000A2002030A5008A30A40020003922F80877
:100910000319982C20302200A3002D30A200203093
:10092000A5009430A40020003922F808031D9E2C55
:10093000203085008A3084007A22AB2C31302300AD
:100940009100023092002000A8018B1BA8178B1386
:100950007421A81B8B172100EF0120004C082100F7
:100960006F020318C32C18306F07840020308500F5
:100970000318850A00082200A20022082000912204
:100980002100EF0AAD2C0D302000111EC52C2300D4
:100990009A000A302000111ECB2C23009A0022005E
:1009A000A00120004C08220020020318E62C2D3064
:1009B00020078400203085000318850A0008A20063
:1009C0002208200091222200A00AD12C0D30200004
:1009D000111EE82C23009A000A302000111EEE2C74
:1009E00023009A00022D20003530230091000230B0
:1009F00092002000A8018B1BA8178B137421A81B41
:100A00008B1723002200A10120004C0822002102A4
:100A10000318142D18302107840020308500031896
:100A2000850A8001A10A042D2000CC012200A10129
:100A300020005708220021020318282D2D302107FD
:100A40008400203085000318850A8001A10A182D32
:0A0A50002000D701F001942B630091
:020000040001F9
:04000E00C239FF1ED6
:00000001FF
;PIC16F1939
;CRC=51F5  CREATED="26-ago.-22 12:57"
