:0600000088313C2B0000DA
:0800080083018031200077081C
:10001000A0007808A1007908A2007A08A3002300B4
:1000200011082000A400230012082000A5002300CE
:1000300013082000A600230014082000A700850153
:1000400091308400801C2628911846288501913023
:100050008400801E2D28911A48282008F7002108C6
:10006000F8002208F9002308FA0024082300910070
:10007000200025082300920020002608230093007A
:1000800020002708230094000900200080318828E0
:100090008031C629F801F901F701FA012200400870
:1000A000031D55283F0803196F281030C1000310A5
:1000B000BD0DBE0DF70DFA0D40087A02031D622832
:1000C0003F087702031C6B283F08F702031CFA0362
:1000D0004008FA020314F80DF90DC10B572820004F
:1000E000080010302200C300F701FA01C00CBF0C59
:1000F000031C80284108F7070318FA0A4208FA0788
:10010000FA0CF70CF90CF80CC30B76282000080049
:1001100031082F02031D932832083002031D932853
:10012000B001AF0197280130AF070030B03D320871
:100130002200BE00200031082200BD00C001643052
:10014000BF0020004A2079082200BE007808BD00C8
:100150003E08C0003D08BF00200034082200C20055
:10016000200033082200C100200071207908FA0025
:1001700030087A02031CC828031DC22878082F0201
:100180000318C82821000E1122000E15CC282000CB
:1001900021000E1122000E11200032082200BE00A4
:1001A000200031082200BD00C0016430BF002000E3
:1001B0004A2079082200BE007808BD003E08C00031
:1001C0003D08BF00200036082200C200200035088C
:1001D0002200C100200071207908FA0030087A025C
:1001E000031CFE28031DF82878082F020318FE2898
:1001F00021008E1022008E140229200021008E1072
:1002000022008E10200032082200BE00200031089B
:100210002200BD00C0016430BF0020004A207908E0
:100220002200BE007808BD003E08C0003D08BF00A7
:10023000200038082200C200200037082200C10038
:10024000200071207908FA0030087A02031C342952
:10025000031D2E2978082F020318342921001010BD
:100260002200101438292000210010102200101044
:10027000200032082200BE00200031082200BD000C
:10028000C0016430BF0020004A2079082200BE006F
:100290007808BD003E08C0003D08BF0020003A08B5
:1002A0002200C200200039082200C1002000712075
:1002B0007908FA0030087A02031C6B29031D6429AF
:1002C00078082F0203186B29F53021008F002200D7
:1002D0008F1470292000F53021008F0022008F102C
:1002E0002000911080312D280B088B1323009517C7
:1002F000151400000000891B8B1713087F390319A0
:10030000C4292200BD00230011082200BE002300E2
:1003100012082200BF003D082000111E8D29230075
:100320009A0022003E082300910022003F0823008B
:1003300092000B088B139517151400000000891B01
:100340008B17130D140D7F390319C4292200BD002A
:10035000230011082200BE00230012082200BF0063
:100360003D082000111EB22923009A0022003E08F9
:100370002300910022003F0823009200910A0319F4
:10038000920A20007429230020000800911EC6292B
:10039000230019082000BB0065080319D629013A7B
:1003A0000319EA29033A0319FE29142A3B08413CA0
:1003B0000319DE293B08613C031DE1290130E500FA
:1003C000E9291E30230091000230920020007421A0
:1003D000E5011B2A3B08543C0319F2293B08743CF5
:1003E000031DF5290230E500FD292230230091008C
:1003F0000230920020007421E5011B2A3B080D3CCD
:10040000031D062A0130F000E501132A1C305007B5
:100410008400203085000318850A3B0880000130E5
:10042000D0070230E5001B2A26302300910002305D
:10043000920020007421911280312D284529D22765
:10044000D2060A004529D227D2060A004529D2271A
:10045000D2060A002B28D726C42AD42CBA18AC12EC
:10046000D81258163216252C252C0D050000CF2544
:100470000D050001AB20CE27552A311D252C252C3A
:100480000D050001AB20CE27552A321D252C252C29
:100490000D0500014529D227D2060A004529D22799
:1004A000D2060A00CF250D0500014529D227D20624
:1004B0000A002B28D726D022D2244F22BA12D812D3
:1004C000D8060A00CF250D0500012B28D726D022FB
:1004D000D2244F22BA12D812D8060A00CF250D0511
:1004E00000014529D227D2060A002B28D726C42A84
:1004F000D42CBA18AC12D81258163216252C252C2A
:10050000AC19AC12D81258163416252C252C0D0512
:100510000001CF250D0500012B28D726C42AD42C95
:10052000311D252C252C0D0500012B28D726C42A8A
:10053000D42C321D252C252C0D0500012B28D72667
:10054000C42AD42C331D252C252C0D0500012B2865
:10055000D726C42AD42C341D252C252C0D050001AA
:100560004529D227D2060A004529D227D2060A00F9
:10057000CF250D0500014529D227D2060A00D63223
:10058000F239E9376E1DA0182E180D050001C43090
:10059000F4323A10321B2F18B817321832190D05E1
:1005A0000001CF250D050000412A2010C337ED3092
:1005B0006E326F10E4322038F23A6531E1060A00FB
:1005C000412AAB20CE27552A2010D030F230A0325D
:1005D000733A6131EC32E3327210F330EC34E430D0
:1005E000731061376136EF33E1390D050001412A9F
:1005F0002B28D726D022D2244F222010D030F23000
:10060000A032733A6131EC32E3327210F032F234DC
:100610006F326F10E432A03161376136E53920283E
:10062000D7260D050001412A2B28D726C42AD42C11
:100630002010D030F230A032733A6131EC32E33224
:100640007210E33463366F10E432203AF230E23055
:10065000EA3720326510E330EE30EC327310D02BE5
:10066000CD060A00412AAB20C227552A2010D030DF
:10067000F230A036EF3974396139A0346E336F39F6
:10068000ED30E3346F37203265362038F237E43A04
:10069000633AEF060A00412A2B24452650102028F1
:1006A00061396110ED37733AF2307210EC34733AFD
:1006B0006110E432A031EF366137E437F3060A0007
:1006C000CF250D050000D2224122D9060A00CF25F0
:1006D0000D0500014529D227D2060A004529D22757
:1006E000D2060A0022002C08FA002B0884007A089F
:1006F00085000008AF002E08FA002D0884007A0853
:10070000850000082F02031D9B2B2C08FA002B08E4
:1007100084007A0885008008031D912B0030F800C2
:10072000B12B2C08FA002B08AB0A0319AC0AAD0A4E
:100730000319AE0A732B2C08FA002B0884002C082E
:1007400085000008AF002E08FA002D0884002E084E
:10075000850000082F020318AF2BFF30B02B0130AB
:10076000F800200008000B088B13230095171514C0
:1007700000000000891B8B170318E82B13087F3932
:100780002200B300230011082200B4002300120845
:100790002200B50033082000111ECC2B23009A0044
:1007A0002200340823009100220035082300920023
:1007B0000B088B139517151400000000891B8B176D
:1007C0002200B20BE42BE62B2300E82B0D2C230098
:1007D000130D140D7F392200B300230011082200ED
:1007E000B400230012082200B50033082000111EB7
:1007F000F72B23009A0022003408230091002200E6
:10080000350823009200910A0319920A031022006E
:10081000B20B0B2C0D2C2000B32B20000800220063
:10082000B31B262C0F30F700320EF7050A30770283
:1008300003181D2C3030F7071F2C3308F7077708F3
:100840002000111E212C23009A0022000F30B20537
:100850000A30320203182E2C3030302CB3133308F8
:10086000B20732082000111E332C23009A0020000A
:1008700008002200B301B201B501B401B701B6010D
:1008800031303002EA3E0318942C163E2000CF2C63
:100890002200B5010130B400942C2200B5010230D1
:1008A000B400942C2200B5010330B400942C220033
:1008B000B5010430B400942C2200B5010530B40019
:1008C000942C2200B5010630B400942C2200B5010E
:1008D0000730B400942C2200B5010830B400942CE9
:1008E0002200B5010930B400942C2200B5010A3071
:1008F000B400942C2200B5010B30B400942C2200DB
:10090000B5010C30B400942C2200B5010D30B400B8
:10091000942C2200B5010E30B400942C2200B501B5
:100920000F30B400942C22003108FC3E0318B02C88
:10093000043E2000E92C2200B7010130B600B02CA3
:100940002200B7011030B600B02C01302200B700F1
:10095000B601B02C10302200B700B601B02C220036
:100960002000A8018B1BA8178B1322003508C0009C
:100970003408BF003708C2003608C10020007120CB
:10098000A81B8B1779082200B3007808B200320840
:10099000F7003308F800F901FA01200008000A10F6
:1009A0008A100A158207482C4D2C522C572C5C2C8F
:1009B000612C662C6B2C702C932C932C932C932CE9
:1009C000932C932C932C752C7A2C7F2C842C892C93
:1009D0008E2C0A108A100A1582079B2CA02CA52C9D
:1009E000AA2C2200AB011C3020005C0784002030C0
:1009F00085000318850A00083F3C031D582D2C086C
:100A0000FA012200AE0020002E08FA012200AF00F9
:100A10002A30230091000230920003100B30220094
:100A2000B2002000B32322002E08B2003730B300FA
:100A300020000F242B082200B2003730B300200022
:100A40000F242C30111E222D23009A00323020005A
:100A5000111E282D23009A002C302000111E2E2D4F
:100A600023009A0022002F08B2003730B300200084
:100A70000F242D082200B2003730B30020000F24CD
:100A80000D30111E412D23009A000A302000111E46
:100A9000472D23009A003730910002309200200049
:100AA000A8018B1BA8178B137421A81B8B17902EE2
:100AB0001C305C078400203085000318850A00087C
:100AC0003D3C031DE52D02305C071C3E84002030B8
:100AD00085000318850A00083F3C031DE52D013001
:100AE0005C071C3E8400203085000318850A00083E
:100AF000E4006408313C031DA72D2C08FA012200F4
:100B0000AE003A302300910002309200031008300A
:100B10002200B2002000B32322002E08B20037309A
:100B2000B30020000F242B082200B2003730B3009E
:100B300020000F240D30111E9B2D23009A000A3037
:100B40002000111EA12D23009A00E32D200064082F
:100B5000323C031DD52D2E08FA012200AE00423092
:100B60002300910002309200031008302200B200EE
:100B70002000B32322002E08B2003730B30020003B
:100B80000F242D082200B2003730B30020000F24BC
:100B90000D30111EC92D23009A000A302000111EAD
:100BA000CF2D23009A00E32D20004A30230091002E
:100BB000023092002000A8018B1BA8178B13742110
:100BC000A81B8B172300912E20001C305C0784008B
:100BD000203085000318850A00083D3C031D832E44
:100BE00001305C071C3E8400203085000318850A14
:100BF0000008E40003305C072200AB002B08200053
:100C00005002031C252E3D306207F8002030FA0008
:100C10000318FA0A78082200AE007A08AF001C30E8
:100C20002B078400203085000318850A0008B000D7
:100C30002F0885002E088400300880000130200035
:100C4000E2072200AB0AFE2D20002200AD01AC011C
:100C5000AB012000620822002B0203184D2E3D300C
:100C60002B078400203085000318850A0008AE0099
:100C7000023020006202F80022002B087802AF0048
:100C80002E08B0002F08B100200039247708220078
:100C9000AC077808AD3DAB0A292E20006408313C32
:100CA000031D5B2E22002D082000AC0022002C0822
:100CB0002000AB00752E6408323C031D682E220014
:100CC0002D082000AE0022002C082000AD00752E5B
:100CD0004E3023009100023092002000A8018B1BAF
:100CE000A8178B137421A81B8B1752302300910077
:100CF000023092002000A8018B1BA8178B137421CF
:100D0000A81B8B17902E55302300910002309200C3
:100D10002000A8018B1BA8178B137421A81B8B170D
:100D2000230088312000C82C2200AB011C30200099
:100D30005C078400203085000318850A00083F3CCA
:100D4000031DD72E3208FA012200AE0059302300CD
:100D500091000230920003100B302200B2002000FC
:100D6000B32322002E08B2003730B30020000F2436
:100D700031082200B2003730B30020000F240D30BC
:100D8000111EC02E23009A000A302000111EC62E0C
:100D900023009A0062309100023092002000A801E6
:100DA0008B1BA8178B137421A81B8B17982F1C3033
:100DB0005C078400203085000318850A00083D3C4C
:100DC000031D182F01305C071C3E84002030850075
:100DD0000318850A00083F3C031D182F3208FA014A
:100DE0002200AE0065302300910002309200031013
:100DF0000B302200B2002000B32322002E08B200E4
:100E00003730B30020000F2431082200B200373001
:100E1000B30020000F240D30111E0C2F23009A0068
:100E20000A302000111E122F23009A00992F200053
:100E30001C305C078400203085000318850A0008F8
:100E40003D3C031D8B2F01305C072200AB002B08BB
:100E500020005002031C4E2F3D306207F800203066
:100E6000FA000318FA0A78082200AE007A08AF00E8
:100E70001C302B078400203085000318850A0008E9
:100E8000B0002F0885002E08840030088000013053
:100E90002000E2072200AB0A272F20002200AD012C
:100EA000AC01AB012000620822002B020318762F50
:100EB0003D302B078400203085000318850A000888
:100EC000AE00023020006202F80022002B087802F7
:100ED000AF002E08B0002F08B10020003924770899
:100EE0002200AC077808AD3DAB0A522F2D08200038
:100EF000B20022002C082000B1006E3023009100C7
:100F0000023092002000A8018B1BA8178B137421BC
:100F1000A81B8B17982F713023009100023092008C
:100F20002000A8018B1BA8178B137421A81B8B17FB
:100F3000230088312000EC2CBF30230091000230C8
:100F400092002000A8018B1BA8178B137421A81BEB
:100F50008B17C73023009100023092002000A801B7
:100F60008B1BA8178B137421A81B8B17D130230060
:100F70009100023092002000A8018B1BA8178B1350
:0A0F80007421A81B8B178831322D55
:101000002200AB011C3020005C07840020308500EA
:101010000318850A00083F3C031DC3283408FA0161
:101020002200AE0020003608FA012200AF002000A6
:101030003808FA012200B00020003A08FA01220024
:10104000B1007530230091000230920003100B3084
:101050002200B20080312000B323883122002E0804
:10106000B2003730B300803120000F2488313308BC
:101070002200B2003730B300803120000F248831C5
:101080002C30111E412823009A0032302000111EFE
:10109000472823009A002C302000111E4D282300E1
:1010A0009A0022002F08B2003730B30080312000B0
:1010B0000F24883135082200B2003730B300803168
:1010C00020000F2488312C30111E642823009A0040
:1010D00033302000111E6A2823009A002C30200093
:1010E000111E702823009A0022003008B200373009
:1010F000B300803120000F24883137082200B2006D
:101100003730B300803120000F2488312C30111E7D
:10111000872823009A0034302000111E8D282300D8
:101120009A002C302000111E932823009A002200E0
:101130003108B2003730B300803120000F248831ED
:1011400039082200B2003730B300803120000F246C
:1011500088310D30111EAA2823009A000A30200081
:10116000111EB02823009A008930910002309200AD
:101170002000A8018B1BA8178B13803174218831A4
:10118000A81B8B178F2A1C305C0784002030850039
:101190000318850A00083D3C031DC62902305C0780
:1011A0001C3E8400203085000318850A00083F3C5F
:1011B000031DC62901305C071C3E840020308500D9
:1011C0000318850A0008E3006308313C031D182951
:1011D0003408FA012200AE008C3023009100023066
:1011E000920003100A302200B20080312000B323A5
:1011F000883122002E08B2003730B3008031200041
:101200000F24883133082200B2003730B300803118
:1012100020000F2488310D30111E0C2923009A0064
:101220000A302000111E122923009A00C429200030
:101230006308323C031D4C293608FA012200AE0037
:101240009530230091000230920003100A302200F2
:10125000B20080312000B323883122002E08B20072
:101260003730B300803120000F2488313508220048
:10127000B2003730B300803120000F2488310D30A8
:10128000111E402923009A000A302000111E462911
:1012900023009A00C42920006308333C031D8029E1
:1012A0003808FA012200AE009E302300910002307F
:1012B000920003100A302200B20080312000B323D4
:1012C000883122002E08B2003730B3008031200070
:1012D0000F24883137082200B2003730B300803144
:1012E00020000F2488310D30111E742923009A002C
:1012F0000A302000111E7A2923009A00C4292000F8
:101300006308343C031DB4293A08FA012200AE00F8
:10131000A730230091000230920003100A3022000F
:10132000B20080312000B323883122002E08B200A1
:101330003730B300803120000F2488313908220073
:10134000B2003730B300803120000F2488310D30D7
:10135000111EA82923009A000A302000111EAE2970
:1013600023009A00C4292000B030230091000230ED
:1013700092002000A8018B1BA8178B1380317421C9
:101380008831A81B8B172300902A20001C305C0793
:101390008400203085000318850A00083D3C031DA9
:1013A000802A01305C071C3E840020308500031831
:1013B000850A0008E30003305C072200AB002B081D
:1013C00020005002031C022A3D3062072200AE00BA
:1013D0002030AF000318AF0A1C302B0784002030E8
:1013E00085000318850A0008B0002F0885002E0824
:1013F00084003008800001302000E2072200AB0AA0
:10140000DF2920002200AD01AC01AB012000620801
:1014100022002B0203182C2A3D302B078400203099
:1014200085000318850A0008AE0002302000620221
:10143000F80022002B087802AF002E08B0002F0819
:10144000B100803120003924883177082200AC07B0
:101450007808AD3DAB0A062A20006308313C031D25
:101460003A2A22002D082000B40022002C08200077
:10147000B300702A6308323C031D472A22002D085E
:101480002000B60022002C082000B500702A630856
:10149000333C031D542A22002D082000B8002200EE
:1014A0002C082000B700702A6308343C031D612A11
:1014B00022002D082000BA0022002C082000B900CC
:1014C000702AB43023009100023092002000A8015D
:1014D0008B1BA8178B13803174218831A81B8B17A5
:1014E000B83023009100023092002000A8018B1B2D
:1014F000A8178B13803174218831A81B8B178F2A72
:10150000BB3023009100023092002000A8018B1B09
:10151000A8178B13803174218831A81B8B172300E7
:10152000883120000F2DD43023009100023092002A
:101530002000A8018B1BA8178B13803174218831E0
:10154000A81B8B17E030230091000230920020008E
:10155000A8018B1BA8178B13803174218831A81B1D
:101560008B17F73023009100023092002000A80171
:101570008B1BA8178B13803174218831A81B8B1704
:10158000133023009100033092002000A8018B1B30
:10159000A8178B13803174218831A81B8B17323028
:1015A00023009100033092002000A8018B1BA81794
:1015B0008B13803174218831A81B8B174B3023008B
:1015C0009100033092002000A8018B1BA8178B13F9
:1015D000803174218831A81B8B1760302300910063
:1015E000033092002000A8018B1BA8178B138031B9
:1015F00074218831A81B8B178831552D2200AB012F
:101600002000500822002B020318102B1C302B073F
:101610008400203085000318850A8001AB0A002B66
:101620002000D0012200AB0120005B0822002B0229
:101630000318242B31302B07840020308500031839
:10164000850A8001AB0A142B2000DB012200AB01CC
:101650002000620822002B020318382B3D302B0794
:101660008400203085000318850A8001AB0A282BEE
:101670002000E2018831762D23009F1508309B0061
:1016800002309C00A6309E0090309D0024009512F0
:10169000403094000B3092003A30950021008E12B9
:1016A0000E168E1101302000AC00F430AB00033078
:1016B000AE002030AD00B001AF011930B200B33040
:1016C000B100B4011930B300B6013230B500B80131
:1016D0004B30B700BA016430B900BB01D001DB0167
:1016E000DC01E201E301E401F0012F00910192012C
:1016F000980199019A0123008C018D018F019001BD
:1017000022009201910194019301F62B02340034DE
:10171000293400340034143440343C3400340A3466
:10172000403451340034053440345D3400340634E0
:101730000034663441344E344F345534543400341C
:1017400006340034A03461346E346F34753474342C
:1017500000341C340034AA34503457344D345034DF
:101760004534523449344F3444340034703477347F
:101770006D3470346534723469346F3464340034D9
:10178000503457344D34443455345434593400347F
:1017900008340034C834703477346D3464347534AC
:1017A00074347934003406340034D2344134423451
:1017B0004F3455345434003406340034DC3461344E
:1017C00062346F3475347434003405340034E634D4
:1017D000483445344C34503400340534013420341A
:1017E000683465346C347034003400340B30850058
:1017F0008630840085171200F700003A0319102C78
:101800001200F800F81B082C0F3987001200860020
:10181000781B1200781F12001E00F70B0A2CFB2BFE
:10182000CF3066000D1266008D12F53021008F005A
:1018300022008F1521000E1122000E1121008E10A2
:1018400022008E10210010102200101021008F00A5
:1018500022008F100030F800043820009C004B302C
:101860009B00210091149116C0308B042000E501EB
:10187000633023009100033092002000A8018B1BED
:10188000A8178B13803174218831A81B8B17700B1C
:10189000772DBC08031D5C2C6730230091000330BA
:1018A00092002000A8018B1BA8178B138031742194
:1018B0008831A81B8B17752D3C082B3C031D662D0A
:1018C00001302200AA002000500822002A0203183A
:1018D000A72C1C302A078400203085000318850AB5
:1018E00000083D3C03197F2C1C302A07840020305F
:1018F00085000318850A00083F3C031D852C2A0833
:101900002000DC002200A72CA52C313020005B0732
:10191000F8002030FA000318FA0A78082200AB0019
:101920007A08AC001C302A07840020308500031898
:10193000850A0008AD002C0885002B0884002D08BE
:10194000800001302000DB072200AA0A632C20302F
:10195000AC003130AB002030AE004630AD008031FD
:10196000200072238831F8080319C62C2030220089
:10197000AC003130AB002030AE005030AD008031D3
:10198000200072238831F808031DCA2C8031F12C05
:101990008831652D20302200AC003130AB00203082
:1019A000AE005A30AD008031200072238831F80833
:1019B0000319EA2C20302200AC003130AB0020307B
:1019C000AE006430AD008031200072238831F80809
:1019D000031DEE2C8031942E8831652D203022009D
:1019E000AC003130AB002030AE006E30AD00803145
:1019F000200072238831F80803190E2D20302200B0
:101A0000AC003130AB002030AE007830AD0080311A
:101A1000200072238831F808031D102D0028652D41
:101A200020302200AC003130AB002030AE008230DC
:101A3000AD008031200072238831F8080319302D61
:101A400020302200AC003130AB002030AE008C30B2
:101A5000AD008031200072238831F808031D342D39
:101A600080319C2F8831652D20302200AC00313030
:101A7000AB002030AE009630AD00803120007223E4
:101A80008831F8080319542D20302200AC00313081
:101A9000AB002030AE00A030AD00803120007223BA
:101AA0008831F808031D562D932A652D6A302300CE
:101AB0009100033092002000A8018B1BA8178B1304
:101AC000803174218831A81B8B17752D6E3023004F
:101AD0009100033092002000A8018B1BA8178B13E4
:101AE000803174218831A81B8B17FE2AF001472C06
:021AF000630091
:020000040001F9
:04000E00C239FF1ED6
:00000001FF
;PIC16F1939
;CRC=74B5  CREATED="26-ago.-22 21:24"
