:06000000803126290000FA
:0800080083018031200077081C
:10001000A0007808A1007908A2007A08A300850151
:1000200091308400801C162891181F282008F700A2
:100030002108F8002208F9002308FA00090080319D
:100040005B28F801F901F701FA013308031D2B2899
:100050003208031945281030B4000310B00DB10D5B
:10006000F70DFA0D33087A02031D3828320877029B
:10007000031C41283208F702031CFA033308FA0272
:100080000314F80DF90DB40B2D2808001030B6003C
:10009000F701FA01B30CB20C031C54283408F7071B
:1000A0000318FA0A3508FA07FA0CF70CF90CF80CE1
:1000B000B60B4A280800F53021008F0008302200D6
:1000C0008F06200026082402031D6D28270825021C
:1000D000031D6D28A501A40171280130A40700307B
:1000E000A53D2708B1002608B000B3016430B20076
:1000F00021207908B1007808B0003108B300300839
:10010000B2002908B5002808B40046207908FA0092
:1001100025087A02031C9828031D922878082402D7
:100120000318982821000E1122000E159C2820008B
:1001300021000E1122000E1120002708B100260810
:10014000B000B3016430B20021207908B100780812
:10015000B0003108B3003008B2002B08B5002A08FF
:10016000B40046207908FA0025087A02031CC42846
:10017000031DBE28780824020318C42821008E100D
:1001800022008E14C828200021008E1022008E101C
:1001900020002708B1002608B000B3016430B20087
:1001A00021207908B1007808B0003108B300300888
:1001B000B2002D08B5002C08B40046207908FA00DA
:1001C00025087A02031CF028031DEA287808240277
:1001D0000318F0282100101022001014F428200029
:1001E000210010102200101020002708B10026085E
:1001F000B000B3016430B20021207908B100780862
:10020000B0003108B3003008B2002F08B5002E0846
:10021000B40046207908FA0025087A02031C1D293B
:10022000031D16297808240203181D29F530210022
:100230008F0022008F1422292000F53021008F002A
:1002400022008F10200091108031162823009F1566
:1002500008309B0002309C00A6309E0090309D002C
:1002600024009512403094000B3092003A309500F3
:1002700021008E120E168E112000A501A401193046
:10028000A700B330A600A901A801AB013230AA0033
:10029000AD014B30AC00AF016430AE002F009101D6
:1002A0009201980199019A0123008C018D018F011F
:1002B000900122009201910194019301CF306600D8
:1002C0000D1266008D12F53021008F0022008F156F
:1002D00021000E1122000E1121008E1022008E101E
:1002E000210010102200101021008F0022008F101A
:1002F0000030F800043820009C004C309B002100A6
:0C03000091169114C0308B048429630016
:020000040001F9
:04000E00C239FF1ED6
:00000001FF
;PIC16F1939
;CRC=444B  CREATED="26-ago.-22 00:12"
